:1000000010C01DC018C139C11AC019C018C017C00E
:1000100016C015C014C013C012C011C010C00FC04C
:100020000EC011241FBECFEDCDBF20E0A0E6B0E092
:1000300001C01D92A236B207E1F741D158C1E0CF0D
:1000400098B3917F98BB9BB39F679BBBDE9848B3E7
:1000500021E030E0F90102C0EE0FFF1F8A95E2F7C0
:10006000CF01842788BB88B301C0220F6A95EAF7C5
:10007000282728BB8FE295E70197F1F700C0000021
:10008000089598B3917F98BB9BB39F679BBB9BB32D
:1000900096789BBB48B321E030E0F90102C0EE0F37
:1000A000FF1F8A95E2F7CF01842788BB88B301C080
:1000B000220F6A95EAF7282728BB8FE295E7019778
:1000C000F1F700C00000089598B3917F98BB9BB3EF
:1000D0009F679BBB9BB39B7D9BBB48B321E030E0FC
:1000E000F90102C0EE0FFF1F8A95E2F7CF018427C6
:1000F00088BB88B301C0220F6A95EAF7282728BB7E
:100100008FE295E70197F1F700C00000089598B3DA
:10011000917F98BB9BB39F679BBB9BB39D7E9BBB13
:1001200048B321E030E0F90102C0EE0FFF1F8A95CD
:10013000E2F7CF01842788BB88B301C0220F6A95FC
:10014000EAF7282728BB8FE295E70197F1F700C06F
:100150000000089598B3917F98BB9BB39F679BBBAA
:100160009BB397789BBB48B321E030E0F90102C014
:10017000EE0FFF1F8A95E2F7CF01842788BB88B373
:1001800001C0220F6A95EAF7282728BB8FE295E77E
:100190000197F1F700C000000895809160009091F0
:1001A000610082339105F1F02CF4009751F04997EA
:1001B00071F008958B34910501F18436910561F158
:1001C000089561E070E082E090E03ADF2AC061E0EB
:1001D00070E082E090E034DF61E070E083E090E086
:1001E00073DF15C061E070E082E090E029DF61E03C
:1001F00070E083E090E08BDF19C061E070E082E0A6
:1002000090E01EDF61E070E083E090E0A3DF62E059
:1002100070E083E090E07BCF61E070E082E090E00E
:1002200030DF61E070E083E090E00ADF62E070E0E0
:1002300083E090E005CF1F920F920FB60F9211242A
:100240008F939F9387E99AE30197F1F700C000002D
:10025000CF990CC08091600090916100181619062A
:100260002CF4499790936100809360009F918F9147
:100270000F900FBE0F901F9018951F920F920FB600
:100280000F9211248F939F9387E99AE30197F1F7D7
:1002900000C00000B0990CC0809160009091610096
:1002A000843691052CF44996909361008093600008
:1002B0009F918F910F900FBE0F901F9018958AB34A
:1002C0008F678ABB8BB38F638BBB87B38E6087BB13
:1002D00088B3817F88BBB89AD79A8BB780638BBF6E
:1002E000979A80B5816080BD789457DFFECFF894EF
:0202F000FFCF3E
:00000001FF
