:100000001CC036C035C034C033C032C031C030C06F
:100010002FC02EC02DC07CC22BC02AC029C028C032
:1000200027C026C025C096C297C2A3C2A4C297C249
:1000300098C299C29AC2A0C29AC211241FBECFE52B
:10004000D4E0DEBFCDBF10E0A0E6B0E0E2EFF5E027
:1000500002C005900D92AC3CB107D9F720E0ACECA2
:10006000B0E001C01D92A43EB207E1F7B2D2BFC218
:10007000C7CF2091CC003091CD002F30310554F402
:10008000F901EC52FF4F80832F5F3F4F3093CD003B
:100090002093CC0008951092CD001092CC000895CA
:1000A000E091CC00F091CD00EC52FF4F108264E65D
:1000B00070E084ED90E092D2892B09F442C06AE6A8
:1000C00070E084ED90E08AD2892BF1F16FE670E068
:1000D00084ED90E083D2892BD1F167E770E084ED65
:1000E00090E07CD2892BB1F16FE770E084ED90E075
:1000F00075D2892B91F16AE870E084ED90E06ED2C0
:10010000892B71F166E970E084ED90E067D2892B6C
:1001100051F163EA70E084ED90E060D2892B31F117
:1001200060EB70E084ED90E059D2892B11F16EEB19
:1001300070E084ED90E052D2892BF1F08AE090E0FB
:10014000089580E090E0089581E090E0089582E0D5
:1001500090E0089583E090E0089584E090E00895B1
:1001600085E090E0089586E090E0089587E090E0D3
:10017000089588E090E0089589E090E0089542B302
:1001800021E030E0B90102C0660F771F8A95E2F7DF
:10019000CB01462742BB92B3892782BB08950F93B8
:1001A00038B3E1E0F0E0DF0102C0AA0FBB1F6A959F
:1001B000E2F79A2F9095932398BB38B3BF0102C002
:1001C000660F771F4A95E2F7962F9095932398BB79
:1001D00038B3AF0101C0440F2A95EAF7942F9095E8
:1001E000932398BB28B3AF0101C0440F0A95EAF7E7
:1001F000942F9095922398BB98B301C0EE0F8A95E7
:10020000EAF7E92BE8BB0F9108956F927F928F92E6
:100210009F92AF92BF92CF92DF92EF92FF920F9395
:100220001F93CF93DF93EC013B016A015901480111
:100230008091CE009091CF00C817D90700F580912A
:10024000CE009091CF00C817D90798F482E090E0D3
:1002500096DF8091CE009091CF0001979093CF00D0
:100260008093CE008FE39CE90197F1F700C0000076
:10027000E6CF87019401A501B601C30190DF80910B
:10028000CE009091CF008C179D0700F58091CE0095
:100290009091CF008C179D0798F483E090E06FDF7A
:1002A0008091CE009091CF0001969093CF008093E3
:1002B000CE008FE39CE90197F1F700C00000E6CF84
:1002C00087019401A501B601C30169DFDF91CF91D8
:1002D0001F910F91FF90EF90DF90CF90BF90AF9064
:1002E0009F908F907F906F9008958091D200909111
:1002F000D300892BA1F48091D0009091D100892B5B
:1003000071F495B382E0892785BB98B380E2892791
:1003100088BB81E090E09093D3008093D2008091DD
:10032000D2009091D300892B99F42091D000309184
:10033000D1002130310561F495B381E0892785BB77
:1003400098B380E2892788BB3093D3002093D200F2
:1003500008958091D2009091D300019791F48091FB
:10036000D0009091D100892B61F495B382E0892768
:1003700085BB98B380E2892788BB1092D300109286
:10038000D2008091D2009091D300019791F4809196
:10039000D0009091D100019761F495B381E0892755
:1003A00085BB98B380E2892788BB1092D300109256
:1003B000D2000895EF92FF920F931F93EE24E394DF
:1003C000F12C02E010E023E030E044E050E065E092
:1003D00070E080E090E019DF1F910F91FF90EF90A7
:1003E0000895EF92FF920F931F93EE24E394F12C64
:1003F00002E010E023E030E045E050E064E070E02F
:1004000081E090E002DF1F910F91FF90EF9008953F
:10041000EF92FF920F931F93EE24E394F12C02E0EE
:1004200010E024E030E045E050E063E070E082E07E
:1004300090E0EBDE1F910F91FF90EF900895EF9207
:10044000FF920F931F93EE24E394F12C03E010E04E
:1004500024E030E045E050E062E070E083E090E0CE
:10046000D4DE1F910F91FF90EF900895EF92FF92CD
:100470000F931F9382E0E82EF12C03E010E024E0BC
:1004800030E045E050E061E070E084E090E0BDDE07
:100490001F910F91FF90EF9008958091D20090915D
:1004A000D300009739F48091D0009091D10001974A
:1004B00079F40AC0019761F48091D0009091D10045
:1004C000019731F4A898A99A1092D1001092D00007
:1004D00008958091D2009091D300009749F48091C3
:1004E000D0009091D100892B91F481E090E00BC075
:1004F0008130910561F42091D0003091D100232BFF
:1005000031F4A998A89A9093D1008093D0000895CF
:100510001F920F920FB60F9211242F933F934F9378
:100520005F936F937F938F939F93AF93BF93EF935B
:10053000FF938CB18B3311F09CDD1EC0B1DD1092A6
:10054000CD001092CC008A309105B0F4FC01ED5E34
:10055000FF4F0994CADE10C02DDFFBDE0DC02ADF7D
:100560000BC03FDF09C054DF07C069DF05C07EDF75
:1005700003C093DF01C0ADDFFF91EF91BF91AF9159
:100580009F918F917F916F915F914F913F912F91AB
:100590000F900FBE0F901F90189584B3836084BB9B
:1005A00085B38C7F85BB089587B38E6387BB88B383
:1005B000817C88BB81B38C6081BB82B3837F82BB2B
:1005C000089510BC83E389B988E98AB986E080BDC3
:1005D0000895E3DFE9DFF5DF7894FFCFFB01DC016D
:1005E0008D91019080190110D9F3990B0895F89419
:0205F000FFCF3B
:1005F2000400000073746172740073746F7000669B
:100602006F72776172640072657665727365007AE3
:1006120065726F5F73706565640066697273745F9B
:100622007370656564007365636F6E645F73706594
:100632006564007468697273745F737065656400E1
:1006420074686F757274685F737065656400666F55
:0C065200757274685F7370656564000069
:00000001FF
