:100000001CC036C035C034C033C032C031C030C06F
:100010002FC02EC02DC0EBC12BC02AC029C028C0C4
:1000200027C026C025C005C206C21AC21BC208C20C
:100030000AC20CC20EC217C20FC211241FBECFE5E6
:10004000D4E0DEBFCDBF10E0A0E6B0E0E0EEF4E02B
:1000500002C005900D92A63DB107D9F720E0A6EDAC
:10006000B0E001C01D92AE3EB207E1F729D236C220
:10007000C7CF2091D6003091D7002F30310554F4EE
:10008000F901E252FF4F80832F5F3F4F3093D7003B
:100090002093D60008951092D7001092D6000895AC
:1000A000E091D600F091D700E252FF4F10826EE649
:1000B00070E08EED90E009D2892B09F442C064E72C
:1000C00070E08EED90E001D2892BF1F169E770E0EC
:1000D0008EED90E0FAD1892BD1F161E870E08EEDE0
:1000E00090E0F3D1892BB1F169E870E08EED90E0FA
:1000F000ECD1892B91F164E970E08EED90E0E5D1CF
:10010000892B71F160EA70E08EED90E0DED1892BF1
:1001100051F16DEA70E08EED90E0D7D1892B31F18D
:100120006AEB70E08EED90E0D0D1892B11F168EC94
:1001300070E08EED90E0C9D1892BF1F08AE090E07B
:10014000089580E090E0089581E090E0089582E0D5
:1001500090E0089583E090E0089584E090E00895B1
:1001600085E090E0089586E090E0089587E090E0D3
:10017000089588E090E0089589E090E00895853042
:10018000910588F428B3880F991FFC01E05AFF4FAE
:1001900081E090E0008002C0880F991F0A94E2F786
:1001A0008095822388BB08958530910580F428B31B
:1001B000880F991FFC01E05AFF4F81E090E000801A
:1001C00002C0880F991F0A94E2F7822B88BB08951A
:1001D0000F931F93CF93DF938C01C0E0D0E0CE014B
:1001E000CEDF2196C530D105D1F7C801DF91CF917F
:1001F0001F910F91D9CF42B321E030E0B90102C085
:10020000660F771F8A95E2F7CB01462742BB92B370
:10021000892782BB0895CF93DF93EC018091D800AA
:100220009091D900C817D907D0F48091D800909147
:10023000D900C817D90780F582E090E0DCDF809113
:10024000D8009091D90001979093D9008093D8005D
:100250008FE39CE90197F1F700C00000E6CF8C170F
:100260009D07D0F48091D8009091D9008C179D07FC
:1002700098F483E090E0BFDF8091D8009091D9009E
:1002800001969093D9008093D8008FE39CE9019761
:10029000F1F700C00000E6CFDF91CF910895CF9332
:1002A000DF93EC01B8DFCE01DF91CF9191CF809148
:1002B000DC009091DD00892BA1F48091DA0090910F
:1002C000DB00892B71F495B382E0892785BB98B355
:1002D00080E2892788BB81E090E09093DD008093E5
:1002E000DC008091DC009091DD00892B99F4209155
:1002F000DA003091DB002130310561F495B381E003
:10030000892785BB98B380E2892788BB3093DD00BD
:100310002093DC0008958091DC009091DD0001972E
:1003200091F48091DA009091DB00892B61F495B310
:1003300082E0892785BB98B380E2892788BB109229
:10034000DD001092DC008091DC009091DD000197CF
:1003500091F48091DA009091DB00019761F495B3FC
:1003600081E0892785BB98B380E2892788BB1092FA
:10037000DD001092DC0008958091DC009091DD009A
:10038000009739F48091DA009091DB00019779F4BD
:100390000AC0019761F48091DA009091DB00019727
:1003A00031F4A898A99A1092DB001092DA0008950F
:1003B0008091DC009091DD00009749F48091DA0093
:1003C0009091DB00892B91F481E090E00BC08130AB
:1003D000910561F42091DA003091DB00232B31F498
:1003E000A998A89A9093DB008093DA0008951F9251
:1003F0000F920FB60F9211242F933F934F935F9359
:100400006F937F938F939F93AF93BF93EF93FF93DC
:100410008CB18B3311F02DDE26C042DE1092D70056
:100420001092D6008A309105F0F4FC01ED5EFF4F8A
:1004300009943DDF18C080E090E031DF6CDF13C02D
:1004400080E090E00BC081E090E008C082E090E0A6
:1004500005C083E090E002C084E090E020DF03C0AC
:100460008BDF01C0A5DFFF91EF91BF91AF919F910D
:100470008F917F916F915F914F913F912F910F904D
:100480000FBE0F901F90189584B3836084BB85B313
:100490008C7F85BB089587B38E6387BB88B3817CCF
:1004A00088BB81B38C6081BB82B3837F82BB08959C
:1004B00010BC83E389B988E98AB986E080BD0895D4
:1004C000E3DFE9DFF5DF7894FFCFFB01DC018D91FD
:1004D000019080190110D9F3990B0895F894FFCF7A
:1004E0000500040003000200010004000000737412
:1004F0006172740073746F7000666F7277617264FA
:100500000072657665727365007A65726F5F7370ED
:100510006565640066697273745F73706565640015
:100520007365636F6E645F7370656564007468699A
:100530007273745F73706565640074686F7572744C
:10054000685F737065656400666F757274685F7369
:0605500070656564000007
:00000001FF
