:100000001CC036C035C034C033C032C031C030C06F
:100010002FC02EC02DC0E0C12BC02AC029C028C0CF
:1000200027C026C025C0FAC1FBC10FC210C2FDC146
:10003000FFC101C203C20CC204C211241FBECFE51E
:10004000D4E0DEBFCDBF10E0A0E6B0E0EAECF4E023
:1000500002C005900D92A43DB107D9F720E0A4EDB0
:10006000B0E001C01D92AC3EB207E1F71ED22BC238
:10007000C7CF2091D4003091D5002F30310554F4F2
:10008000F901E452FF4F80832F5F3F4F3093D5003B
:100090002093D40008951092D5001092D4000895B2
:1000A000E091D400F091D500E452FF4F10826CE64D
:1000B00070E08CED90E0FED1892B09F442C062E73C
:1000C00070E08CED90E0F6D1892BF1F167E770E0FC
:1000D0008CED90E0EFD1892BD1F16FE770E08CEDE2
:1000E00090E0E8D1892BB1F167E870E08CED90E009
:1000F000E1D1892B91F162E970E08CED90E0DAD1E9
:10010000892B71F16EE970E08CED90E0D3D1892BF1
:1001100051F16BEA70E08CED90E0CCD1892B31F19C
:1001200068EB70E08CED90E0C5D1892B11F166ECA5
:1001300070E08CED90E0BED1892BF1F08AE090E088
:10014000089580E090E0089581E090E0089582E0D5
:1001500090E0089583E090E0089584E090E00895B1
:1001600085E090E0089586E090E0089587E090E0D3
:10017000089588E090E0089589E090E00895853042
:10018000910588F428B3880F991FFC01E25AFF4FAC
:1001900081E090E0008002C0880F991F0A94E2F786
:1001A0008095822388BB08958530910580F428B31B
:1001B000880F991FFC01E25AFF4F81E090E0008018
:1001C00002C0880F991F0A94E2F7822B88BB08951A
:1001D000CF93DF93EC0181E090E0D1DF82E090E00B
:1001E000CEDF83E090E0CBDF84E090E0C8DF2097B3
:1001F00021F0CE01DF91CF91D7CFDF91CF9108953C
:1002000042B321E030E0B90102C0660F771F8A9542
:10021000E2F7CB01462742BB92B3892782BB089500
:10022000CF93DF93EC018091D6009091D700C8174F
:10023000D907D0F48091D6009091D700C817D9077C
:1002400080F582E090E0DCDF8091D6009091D700CD
:1002500001979093D7008093D6008FE39CE9019794
:10026000F1F700C00000E6CF8C179D07D0F4809115
:10027000D6009091D7008C179D0798F483E090E00A
:10028000BFDF8091D6009091D70001969093D70060
:100290008093D6008FE39CE90197F1F700C000003E
:1002A000E6CFDF91CF910895CF93DF93EC01B8DFD4
:1002B000CE01DF91CF918CCF8091DA009091DB005D
:1002C000892B81F48091D8009091D900892B51F429
:1002D00095B382E0892785BB81E090E09093DB00B5
:1002E0008093DA008091DA009091DB00892B79F419
:1002F0002091D8003091D9002130310541F495B3D7
:1003000081E0892785BB3093DB002093DA000895D4
:100310008091DA009091DB00019771F48091D80010
:100320009091D900892B41F495B382E0892785BB50
:100330001092DB001092DA008091DA009091DB00DD
:10034000019771F48091D8009091D900019741F400
:1003500095B381E0892785BB1092DB001092DA000B
:1003600008958091DA009091DB00009739F4809134
:10037000D8009091D900019779F40AC0019761F4EF
:100380008091D8009091D900019731F4A898A99A4A
:100390001092D9001092D80008958091DA009091BF
:1003A000DB00009749F48091D8009091D900892B07
:1003B00091F481E090E00BC08130910561F42091CF
:1003C000D8003091D900232B31F4A998A89A9093A2
:1003D000D9008093D80008951F920F920FB60F9204
:1003E00011242F933F934F935F936F937F938F933A
:1003F0009F93AF93BF93EF93FF938CB18B3311F027
:1004000038DE26C04DDE1092D5001092D4008A301E
:100410009105F0F4FC01ED5EFF4F09944DDF18C02B
:1004200080E090E041DF74DF13C080E090E00BC01B
:1004300081E090E008C082E090E005C083E090E0B9
:1004400002C084E090E030DF03C08BDF01C0A5DF95
:10045000FF91EF91BF91AF919F918F917F916F919C
:100460005F914F913F912F910F900FBE0F901F9072
:10047000189584B3836084BB85B38C7F85BB089556
:1004800087B38E6387BB88B3817C88BB81B38C6064
:1004900081BB82B3837F82BB089510BC83E389B99B
:1004A00088E98AB986E080BD0895E3DFE9DFF5DFFA
:1004B0007894FFCFFB01DC018D9101908019011030
:0A04C000D9F3990B0895F894FFCFCB
:1004CA00040003000200010004000000737461725A
:1004DA00740073746F7000666F7277617264007271
:1004EA00657665727365007A65726F5F73706565AC
:1004FA00640066697273745F73706565640073651E
:10050A00636F6E645F7370656564007468697273A3
:10051A00745F73706565640074686F757274685F80
:10052A00737065656400666F757274685F73706571
:04053A0065640000F4
:00000001FF
